{
  "contractName": "CPAMM",
  "abi": [
    {
      "inputs": [
        {
          "internalType": "address",
          "name": "_token0",
          "type": "address"
        },
        {
          "internalType": "address",
          "name": "_token1",
          "type": "address"
        }
      ],
      "stateMutability": "nonpayable",
      "type": "constructor"
    },
    {
      "inputs": [],
      "name": "reserve0",
      "outputs": [
        {
          "internalType": "uint256",
          "name": "",
          "type": "uint256"
        }
      ],
      "stateMutability": "view",
      "type": "function"
    },
    {
      "inputs": [],
      "name": "reserve1",
      "outputs": [
        {
          "internalType": "uint256",
          "name": "",
          "type": "uint256"
        }
      ],
      "stateMutability": "view",
      "type": "function"
    },
    {
      "inputs": [
        {
          "internalType": "address",
          "name": "",
          "type": "address"
        }
      ],
      "name": "sharesHeld",
      "outputs": [
        {
          "internalType": "uint256",
          "name": "",
          "type": "uint256"
        }
      ],
      "stateMutability": "view",
      "type": "function"
    },
    {
      "inputs": [],
      "name": "token0",
      "outputs": [
        {
          "internalType": "contract IERC20",
          "name": "",
          "type": "address"
        }
      ],
      "stateMutability": "view",
      "type": "function"
    },
    {
      "inputs": [],
      "name": "token1",
      "outputs": [
        {
          "internalType": "contract IERC20",
          "name": "",
          "type": "address"
        }
      ],
      "stateMutability": "view",
      "type": "function"
    },
    {
      "inputs": [],
      "name": "totalSupply",
      "outputs": [
        {
          "internalType": "uint256",
          "name": "",
          "type": "uint256"
        }
      ],
      "stateMutability": "view",
      "type": "function"
    },
    {
      "inputs": [
        {
          "internalType": "uint256",
          "name": "_amount0",
          "type": "uint256"
        },
        {
          "internalType": "uint256",
          "name": "_amount1",
          "type": "uint256"
        }
      ],
      "name": "addLiquidity",
      "outputs": [],
      "stateMutability": "nonpayable",
      "type": "function"
    },
    {
      "inputs": [
        {
          "internalType": "uint256",
          "name": "shares",
          "type": "uint256"
        }
      ],
      "name": "removeLiquidity",
      "outputs": [],
      "stateMutability": "nonpayable",
      "type": "function"
    },
    {
      "inputs": [
        {
          "internalType": "address",
          "name": "_token",
          "type": "address"
        },
        {
          "internalType": "uint256",
          "name": "_amount",
          "type": "uint256"
        }
      ],
      "name": "swap",
      "outputs": [],
      "stateMutability": "nonpayable",
      "type": "function"
    }
  ],
  "bytecode": "0x60c06040523480156200001157600080fd5b5060405162001b8038038062001b80833981810160405281019062000037919062000111565b8173ffffffffffffffffffffffffffffffffffffffff1660808173ffffffffffffffffffffffffffffffffffffffff16815250508073ffffffffffffffffffffffffffffffffffffffff1660a08173ffffffffffffffffffffffffffffffffffffffff1681525050505062000158565b600080fd5b600073ffffffffffffffffffffffffffffffffffffffff82169050919050565b6000620000d982620000ac565b9050919050565b620000eb81620000cc565b8114620000f757600080fd5b50565b6000815190506200010b81620000e0565b92915050565b600080604083850312156200012b576200012a620000a7565b5b60006200013b85828601620000fa565b92505060206200014e85828601620000fa565b9150509250929050565b60805160a05161197d6200020360003960008181610324015281816105120152818161065f0152818161085401528181610a3c01528181610b6701528181610c9201528181610d0001528181610f120152610fbb0152600081816101b40152818161028601528181610473015281816105b9015281816107b3015281816109a201528181610b1201528181610c3f01528181610cb301528181610cdf0152610e78015261197d6000f3fe608060405234801561001057600080fd5b50600436106100935760003560e01c8063741bd2a511610066578063741bd2a5146101105780639c8f9f23146101405780639cd441da1461015c578063d004f0f714610178578063d21220a71461019457610093565b80630dfe16811461009857806318160ddd146100b6578063443cb4bc146100d45780635a76f25e146100f2575b600080fd5b6100a06101b2565b6040516100ad91906111cb565b60405180910390f35b6100be6101d6565b6040516100cb91906111ff565b60405180910390f35b6100dc6101dc565b6040516100e991906111ff565b60405180910390f35b6100fa6101e2565b60405161010791906111ff565b60405180910390f35b61012a6004803603810190610125919061125d565b6101e8565b60405161013791906111ff565b60405180910390f35b61015a600480360381019061015591906112b6565b610200565b005b610176600480360381019061017191906112e3565b6105b6565b005b610192600480360381019061018d9190611323565b610b10565b005b61019c610fb9565b6040516101a991906111cb565b60405180910390f35b7f000000000000000000000000000000000000000000000000000000000000000081565b60025481565b60005481565b60015481565b60036020528060005260406000206000915090505481565b80600360003373ffffffffffffffffffffffffffffffffffffffff1673ffffffffffffffffffffffffffffffffffffffff168152602001908152602001600020541015610282576040517f08c379a0000000000000000000000000000000000000000000000000000000008152600401610279906113c0565b60405180910390fd5b60007f000000000000000000000000000000000000000000000000000000000000000073ffffffffffffffffffffffffffffffffffffffff166370a08231306040518263ffffffff1660e01b81526004016102dd91906113ef565b602060405180830381865afa1580156102fa573d6000803e3d6000fd5b505050506040513d601f19601f8201168201806040525081019061031e919061141f565b905060007f000000000000000000000000000000000000000000000000000000000000000073ffffffffffffffffffffffffffffffffffffffff166370a08231306040518263ffffffff1660e01b815260040161037b91906113ef565b602060405180830381865afa158015610398573d6000803e3d6000fd5b505050506040513d601f19601f820116820180604052508101906103bc919061141f565b9050600060025483856103cf919061147b565b6103d991906114ec565b9050600060025483866103ec919061147b565b6103f691906114ec565b90506000821180156104085750600081115b610447576040517f08c379a000000000000000000000000000000000000000000000000000000000815260040161043e9061158f565b60405180910390fd5b6104513386610fdd565b610471828561046091906115af565b828561046c91906115af565b611050565b7f000000000000000000000000000000000000000000000000000000000000000073ffffffffffffffffffffffffffffffffffffffff1663a9059cbb33846040518363ffffffff1660e01b81526004016104cc9291906115e3565b6020604051808303816000875af11580156104eb573d6000803e3d6000fd5b505050506040513d601f19601f8201168201806040525081019061050f9190611644565b507f000000000000000000000000000000000000000000000000000000000000000073ffffffffffffffffffffffffffffffffffffffff1663a9059cbb33836040518363ffffffff1660e01b815260040161056b9291906115e3565b6020604051808303816000875af115801561058a573d6000803e3d6000fd5b505050506040513d601f19601f820116820180604052508101906105ae9190611644565b505050505050565b817f000000000000000000000000000000000000000000000000000000000000000073ffffffffffffffffffffffffffffffffffffffff1663dd62ed3e33306040518363ffffffff1660e01b8152600401610612929190611671565b602060405180830381865afa15801561062f573d6000803e3d6000fd5b505050506040513d601f19601f82011682018060405250810190610653919061141f565b101580156106fc5750807f000000000000000000000000000000000000000000000000000000000000000073ffffffffffffffffffffffffffffffffffffffff1663dd62ed3e33306040518363ffffffff1660e01b81526004016106b8929190611671565b602060405180830381865afa1580156106d5573d6000803e3d6000fd5b505050506040513d601f19601f820116820180604052508101906106f9919061141f565b10155b61073b576040517f08c379a0000000000000000000000000000000000000000000000000000000008152600401610732906116e6565b60405180910390fd5b6000805414158061074f5750600060015414155b156107b15760005481610762919061147b565b60015483610770919061147b565b146107b0576040517f08c379a00000000000000000000000000000000000000000000000000000000081526004016107a790611778565b60405180910390fd5b5b7f000000000000000000000000000000000000000000000000000000000000000073ffffffffffffffffffffffffffffffffffffffff166323b872dd3330856040518463ffffffff1660e01b815260040161080e93929190611798565b6020604051808303816000875af115801561082d573d6000803e3d6000fd5b505050506040513d601f19601f820116820180604052508101906108519190611644565b507f000000000000000000000000000000000000000000000000000000000000000073ffffffffffffffffffffffffffffffffffffffff166323b872dd3330846040518463ffffffff1660e01b81526004016108af93929190611798565b6020604051808303816000875af11580156108ce573d6000803e3d6000fd5b505050506040513d601f19601f820116820180604052508101906108f29190611644565b506000806002540361091957610912828461090d919061147b565b611062565b905061095a565b6109576000546002548561092d919061147b565b61093791906114ec565b60015460025485610948919061147b565b61095291906114ec565b6110bf565b90505b6000811161099d576040517f08c379a00000000000000000000000000000000000000000000000000000000081526004016109949061181b565b60405180910390fd5b610ad97f000000000000000000000000000000000000000000000000000000000000000073ffffffffffffffffffffffffffffffffffffffff166370a08231306040518263ffffffff1660e01b81526004016109f991906113ef565b602060405180830381865afa158015610a16573d6000803e3d6000fd5b505050506040513d601f19601f82011682018060405250810190610a3a919061141f565b7f000000000000000000000000000000000000000000000000000000000000000073ffffffffffffffffffffffffffffffffffffffff166370a08231306040518263ffffffff1660e01b8152600401610a9391906113ef565b602060405180830381865afa158015610ab0573d6000803e3d6000fd5b505050506040513d601f19601f82011682018060405250810190610ad4919061141f565b611050565b82600054610ae7919061183b565b60008190555081600154610afb919061183b565b600181905550610b0b33826110d9565b505050565b7f000000000000000000000000000000000000000000000000000000000000000073ffffffffffffffffffffffffffffffffffffffff168273ffffffffffffffffffffffffffffffffffffffff161480610bb557507f000000000000000000000000000000000000000000000000000000000000000073ffffffffffffffffffffffffffffffffffffffff168273ffffffffffffffffffffffffffffffffffffffff16145b610bf4576040517f08c379a0000000000000000000000000000000000000000000000000000000008152600401610beb906118bb565b60405180910390fd5b60008111610c37576040517f08c379a0000000000000000000000000000000000000000000000000000000008152600401610c2e90611927565b60405180910390fd5b6000806000807f000000000000000000000000000000000000000000000000000000000000000073ffffffffffffffffffffffffffffffffffffffff168673ffffffffffffffffffffffffffffffffffffffff1614610cdd577f00000000000000000000000000000000000000000000000000000000000000007f0000000000000000000000000000000000000000000000000000000000000000600154600054610d26565b7f00000000000000000000000000000000000000000000000000000000000000007f00000000000000000000000000000000000000000000000000000000000000006000546001545b93509350935093508373ffffffffffffffffffffffffffffffffffffffff166323b872dd3330886040518463ffffffff1660e01b8152600401610d6b93929190611798565b6020604051808303816000875af1158015610d8a573d6000803e3d6000fd5b505050506040513d601f19601f82011682018060405250810190610dae9190611644565b5060006103e86103e587610dc2919061147b565b610dcc91906114ec565b905060008184610ddc919061183b565b8383610de8919061147b565b610df291906114ec565b90508473ffffffffffffffffffffffffffffffffffffffff1663a9059cbb33836040518363ffffffff1660e01b8152600401610e2f9291906115e3565b6020604051808303816000875af1158015610e4e573d6000803e3d6000fd5b505050506040513d601f19601f82011682018060405250810190610e729190611644565b50610faf7f000000000000000000000000000000000000000000000000000000000000000073ffffffffffffffffffffffffffffffffffffffff166370a08231306040518263ffffffff1660e01b8152600401610ecf91906113ef565b602060405180830381865afa158015610eec573d6000803e3d6000fd5b505050506040513d601f19601f82011682018060405250810190610f10919061141f565b7f000000000000000000000000000000000000000000000000000000000000000073ffffffffffffffffffffffffffffffffffffffff166370a08231306040518263ffffffff1660e01b8152600401610f6991906113ef565b602060405180830381865afa158015610f86573d6000803e3d6000fd5b505050506040513d601f19601f82011682018060405250810190610faa919061141f565b611050565b5050505050505050565b7f000000000000000000000000000000000000000000000000000000000000000081565b80600360008473ffffffffffffffffffffffffffffffffffffffff1673ffffffffffffffffffffffffffffffffffffffff168152602001908152602001600020600082825461102c91906115af565b925050819055508060026000828254611045919061183b565b925050819055505050565b81600081905550806001819055505050565b6000806002600184611074919061183b565b61107e91906114ec565b90508291505b818110156110b957809150600281828561109e91906114ec565b6110a8919061183b565b6110b291906114ec565b9050611084565b50919050565b6000818310156110cf57826110d1565b815b905092915050565b80600360008473ffffffffffffffffffffffffffffffffffffffff1673ffffffffffffffffffffffffffffffffffffffff1681526020019081526020016000206000828254611128919061183b565b925050819055508060026000828254611141919061183b565b925050819055505050565b600073ffffffffffffffffffffffffffffffffffffffff82169050919050565b6000819050919050565b600061119161118c6111878461114c565b61116c565b61114c565b9050919050565b60006111a382611176565b9050919050565b60006111b582611198565b9050919050565b6111c5816111aa565b82525050565b60006020820190506111e060008301846111bc565b92915050565b6000819050919050565b6111f9816111e6565b82525050565b600060208201905061121460008301846111f0565b92915050565b600080fd5b600061122a8261114c565b9050919050565b61123a8161121f565b811461124557600080fd5b50565b60008135905061125781611231565b92915050565b6000602082840312156112735761127261121a565b5b600061128184828501611248565b91505092915050565b611293816111e6565b811461129e57600080fd5b50565b6000813590506112b08161128a565b92915050565b6000602082840312156112cc576112cb61121a565b5b60006112da848285016112a1565b91505092915050565b600080604083850312156112fa576112f961121a565b5b6000611308858286016112a1565b9250506020611319858286016112a1565b9150509250929050565b6000806040838503121561133a5761133961121a565b5b600061134885828601611248565b9250506020611359858286016112a1565b9150509250929050565b600082825260208201905092915050565b7f4350414d4d3a20414444204c4951554944495459204649525354000000000000600082015250565b60006113aa601a83611363565b91506113b582611374565b602082019050919050565b600060208201905081810360008301526113d98161139d565b9050919050565b6113e98161121f565b82525050565b600060208201905061140460008301846113e0565b92915050565b6000815190506114198161128a565b92915050565b6000602082840312156114355761143461121a565b5b60006114438482850161140a565b91505092915050565b7f4e487b7100000000000000000000000000000000000000000000000000000000600052601160045260246000fd5b6000611486826111e6565b9150611491836111e6565b925082820261149f816111e6565b915082820484148315176114b6576114b561144c565b5b5092915050565b7f4e487b7100000000000000000000000000000000000000000000000000000000600052601260045260246000fd5b60006114f7826111e6565b9150611502836111e6565b925082611512576115116114bd565b5b828204905092915050565b7f4350414d4d3a204e4f204c495155494449545920415641494c41424c4520494e60008201527f2054484520504f4f4c0000000000000000000000000000000000000000000000602082015250565b6000611579602983611363565b91506115848261151d565b604082019050919050565b600060208201905081810360008301526115a88161156c565b9050919050565b60006115ba826111e6565b91506115c5836111e6565b92508282039050818111156115dd576115dc61144c565b5b92915050565b60006040820190506115f860008301856113e0565b61160560208301846111f0565b9392505050565b60008115159050919050565b6116218161160c565b811461162c57600080fd5b50565b60008151905061163e81611618565b92915050565b60006020828403121561165a5761165961121a565b5b60006116688482850161162f565b91505092915050565b600060408201905061168660008301856113e0565b61169360208301846113e0565b9392505050565b7f4350414d4d3a204e4f5420415050524f56454400000000000000000000000000600082015250565b60006116d0601383611363565b91506116db8261169a565b602082019050919050565b600060208201905081810360008301526116ff816116c3565b9050919050565b7f4350414d4d3a20535550504c494544204c495155494449545920495320494e5660008201527f414c494400000000000000000000000000000000000000000000000000000000602082015250565b6000611762602483611363565b915061176d82611706565b604082019050919050565b6000602082019050818103600083015261179181611755565b9050919050565b60006060820190506117ad60008301866113e0565b6117ba60208301856113e0565b6117c760408301846111f0565b949350505050565b7f736861726573203d203000000000000000000000000000000000000000000000600082015250565b6000611805600a83611363565b9150611810826117cf565b602082019050919050565b60006020820190508181036000830152611834816117f8565b9050919050565b6000611846826111e6565b9150611851836111e6565b92508282019050808211156118695761186861144c565b5b92915050565b7f4350414d4d3a20494e56414c494420544f4b454e000000000000000000000000600082015250565b60006118a5601483611363565b91506118b08261186f565b602082019050919050565b600060208201905081810360008301526118d481611898565b9050919050565b7f4350414d4d3a20414d4f554e542048415320544f204245203e20300000000000600082015250565b6000611911601b83611363565b915061191c826118db565b602082019050919050565b6000602082019050818103600083015261194081611904565b905091905056fea26469706673582212203a2ee082767e234ede4520bd4638ee866fa2c0b10a6bd352588d3f915977025764736f6c63430008110033",
  "immutableReferences": {
    "717": [
      {
        "length": 32,
        "start": 436
      },
      {
        "length": 32,
        "start": 646
      },
      {
        "length": 32,
        "start": 1139
      },
      {
        "length": 32,
        "start": 1465
      },
      {
        "length": 32,
        "start": 1971
      },
      {
        "length": 32,
        "start": 2466
      },
      {
        "length": 32,
        "start": 2834
      },
      {
        "length": 32,
        "start": 3135
      },
      {
        "length": 32,
        "start": 3251
      },
      {
        "length": 32,
        "start": 3295
      },
      {
        "length": 32,
        "start": 3704
      }
    ],
    "720": [
      {
        "length": 32,
        "start": 804
      },
      {
        "length": 32,
        "start": 1298
      },
      {
        "length": 32,
        "start": 1631
      },
      {
        "length": 32,
        "start": 2132
      },
      {
        "length": 32,
        "start": 2620
      },
      {
        "length": 32,
        "start": 2919
      },
      {
        "length": 32,
        "start": 3218
      },
      {
        "length": 32,
        "start": 3328
      },
      {
        "length": 32,
        "start": 3858
      },
      {
        "length": 32,
        "start": 4027
      }
    ]
  },
  "source": "// SPDX-License-Identifier: MIT\r\n\r\npragma solidity ^0.8.17;\r\n\r\nimport \"@openzeppelin/contracts/token/ERC20/IERC20.sol\";\r\n\r\ncontract CPAMM {\r\n    IERC20 public immutable token0;\r\n    IERC20 public immutable token1;\r\n\r\n    uint256 public reserve0;\r\n    uint256 public reserve1;\r\n\r\n    uint256 public totalSupply;\r\n\r\n    mapping(address => uint256) public sharesHeld;\r\n\r\n    constructor(address _token0, address _token1) {\r\n        token0 = IERC20(_token0);\r\n        token1 = IERC20(_token1);\r\n    }\r\n\r\n    function mint(address _to, uint256 _amount) private {\r\n        sharesHeld[_to] += _amount;\r\n        totalSupply += _amount;\r\n    }\r\n\r\n    function burn(address _from, uint256 _amount) private {\r\n        sharesHeld[_from] -= _amount;\r\n        totalSupply += _amount;\r\n    }\r\n\r\n    function updateReserves(uint256 _reserve0, uint256 _reserve1) private {\r\n        reserve0 = _reserve0;\r\n        reserve1 = _reserve1;\r\n    }\r\n\r\n    function addLiquidity(uint256 _amount0, uint256 _amount1) external {\r\n        require(\r\n            token0.allowance(msg.sender, address(this)) >= _amount0\r\n                && token1.allowance(msg.sender, address(this)) >= _amount1,\r\n            \"CPAMM: NOT APPROVED\"\r\n        );\r\n        // CHECK dy/dx = y/x\r\n        if (reserve0 != 0 || reserve1 != 0) {\r\n            require(_amount0 * reserve1 == _amount1 * reserve0, \"CPAMM: SUPPLIED LIQUIDITY IS INVALID\");\r\n        }\r\n\r\n        token0.transferFrom(msg.sender, address(this), _amount0);\r\n        token1.transferFrom(msg.sender, address(this), _amount1);\r\n\r\n        // CALCULATE SHARES\r\n        uint256 shares;\r\n        if (totalSupply == 0) {\r\n            shares = sqrt(_amount0 * _amount1);\r\n        } else {\r\n            shares = min((_amount0 * totalSupply) / reserve0, (_amount1 * totalSupply) / reserve1);\r\n        }\r\n        require(shares > 0, \"shares = 0\");\r\n\r\n        updateReserves(token0.balanceOf(address(this)), token1.balanceOf(address(this)));\r\n        // UPDATE RESERVES\r\n        reserve0 = reserve0 + _amount0;\r\n        reserve1 = reserve1 + _amount1;\r\n\r\n        mint(msg.sender, shares);\r\n    }\r\n\r\n    function removeLiquidity(uint256 shares) external {\r\n        // CHECK VALID STATES\r\n        require(sharesHeld[msg.sender] >= shares, \"CPAMM: ADD LIQUIDITY FIRST\");\r\n\r\n        uint256 bal0 = token0.balanceOf(address(this));\r\n        uint256 bal1 = token1.balanceOf(address(this));\r\n\r\n        // CALCULATE OUT AMOUNT\r\n        uint256 amount0 = (shares * bal0) / totalSupply;\r\n        uint256 amount1 = (shares * bal1) / totalSupply;\r\n\r\n        require(amount0 > 0 && amount1 > 0, \"CPAMM: NO LIQUIDITY AVAILABLE IN THE POOL\");\r\n\r\n        burn(msg.sender, shares);\r\n        updateReserves(bal0 - amount0, bal1 - amount1);\r\n\r\n        // TRANSFER AND UPDATE STATES\r\n        token0.transfer(msg.sender, amount0);\r\n        token1.transfer(msg.sender, amount1);\r\n    }\r\n\r\n    function swap(address _token, uint256 _amount) external {\r\n        require(_token == address(token0) || _token == address(token1), \"CPAMM: INVALID TOKEN\");\r\n        require(_amount > 0, \"CPAMM: AMOUNT HAS TO BE > 0\");\r\n\r\n        (IERC20 tokenIn, IERC20 tokenOut, uint256 reserveIn, uint256 reserveOut) =\r\n            _token == address(token0) ? (token0, token1, reserve0, reserve1) : (token1, token0, reserve1, reserve0);\r\n\r\n        tokenIn.transferFrom(msg.sender, address(this), _amount);\r\n\r\n        // FEE IS 0.3\r\n        uint256 amountWithoutFees = (_amount * 997) / 1000;\r\n\r\n        // CALC dy = (y * dx) / (x + dx)\r\n        uint256 amountOut = (amountWithoutFees * reserveOut) / (reserveIn + amountWithoutFees);\r\n        tokenOut.transfer(msg.sender, amountOut);\r\n\r\n        updateReserves(token0.balanceOf(address(this)), token1.balanceOf(address(this)));\r\n    }\r\n\r\n    // UTILITY FUNCTIONS\r\n    function sqrt(uint256 x) private pure returns (uint256 y) {\r\n        uint256 z = (x + 1) / 2;\r\n        y = x;\r\n        while (z < y) {\r\n            y = z;\r\n            z = (x / z + z) / 2;\r\n        }\r\n    }\r\n\r\n    function min(uint256 x, uint256 y) private pure returns (uint256) {\r\n        return x >= y ? y : x;\r\n    }\r\n}\r\n",
  "sourcePath": "D:\\Projects\\DevHouse\\dex-contracts\\contracts\\CPAMM.sol",
  "compiler": {
    "name": "solc",
    "version": "0.8.17+commit.8df45f5f.Emscripten.clang"
  },
  "schemaVersion": "3.4.11",
  "updatedAt": "2023-01-22T13:47:23.588Z",
  "devdoc": {
    "kind": "dev",
    "methods": {},
    "version": 1
  },
  "userdoc": {
    "kind": "user",
    "methods": {},
    "version": 1
  }
}