{
  "contractName": "CPAMM",
  "abi": [
    {
      "inputs": [
        {
          "internalType": "address",
          "name": "_token0",
          "type": "address"
        },
        {
          "internalType": "address",
          "name": "_token1",
          "type": "address"
        }
      ],
      "stateMutability": "nonpayable",
      "type": "constructor"
    },
    {
      "inputs": [],
      "name": "reserve0",
      "outputs": [
        {
          "internalType": "uint256",
          "name": "",
          "type": "uint256"
        }
      ],
      "stateMutability": "view",
      "type": "function",
      "constant": true
    },
    {
      "inputs": [],
      "name": "reserve1",
      "outputs": [
        {
          "internalType": "uint256",
          "name": "",
          "type": "uint256"
        }
      ],
      "stateMutability": "view",
      "type": "function",
      "constant": true
    },
    {
      "inputs": [
        {
          "internalType": "address",
          "name": "",
          "type": "address"
        }
      ],
      "name": "sharesHeld",
      "outputs": [
        {
          "internalType": "uint256",
          "name": "",
          "type": "uint256"
        }
      ],
      "stateMutability": "view",
      "type": "function",
      "constant": true
    },
    {
      "inputs": [],
      "name": "token0",
      "outputs": [
        {
          "internalType": "contract IERC20",
          "name": "",
          "type": "address"
        }
      ],
      "stateMutability": "view",
      "type": "function",
      "constant": true
    },
    {
      "inputs": [],
      "name": "token1",
      "outputs": [
        {
          "internalType": "contract IERC20",
          "name": "",
          "type": "address"
        }
      ],
      "stateMutability": "view",
      "type": "function",
      "constant": true
    },
    {
      "inputs": [],
      "name": "totalSupply",
      "outputs": [
        {
          "internalType": "uint256",
          "name": "",
          "type": "uint256"
        }
      ],
      "stateMutability": "view",
      "type": "function",
      "constant": true
    },
    {
      "inputs": [
        {
          "internalType": "uint256",
          "name": "_amount0",
          "type": "uint256"
        },
        {
          "internalType": "uint256",
          "name": "_amount1",
          "type": "uint256"
        }
      ],
      "name": "addLiquidity",
      "outputs": [],
      "stateMutability": "nonpayable",
      "type": "function"
    },
    {
      "inputs": [
        {
          "internalType": "uint256",
          "name": "shares",
          "type": "uint256"
        }
      ],
      "name": "removeLiquidity",
      "outputs": [],
      "stateMutability": "nonpayable",
      "type": "function"
    },
    {
      "inputs": [
        {
          "internalType": "address",
          "name": "_token",
          "type": "address"
        },
        {
          "internalType": "uint256",
          "name": "_amount",
          "type": "uint256"
        }
      ],
      "name": "swap",
      "outputs": [],
      "stateMutability": "nonpayable",
      "type": "function"
    }
  ],
  "bytecode": "0x60c06040523480156200001157600080fd5b5060405162001b5838038062001b58833981810160405281019062000037919062000111565b8173ffffffffffffffffffffffffffffffffffffffff1660808173ffffffffffffffffffffffffffffffffffffffff16815250508073ffffffffffffffffffffffffffffffffffffffff1660a08173ffffffffffffffffffffffffffffffffffffffff1681525050505062000158565b600080fd5b600073ffffffffffffffffffffffffffffffffffffffff82169050919050565b6000620000d982620000ac565b9050919050565b620000eb81620000cc565b8114620000f757600080fd5b50565b6000815190506200010b81620000e0565b92915050565b600080604083850312156200012b576200012a620000a7565b5b60006200013b85828601620000fa565b92505060206200014e85828601620000fa565b9150509250929050565b60805160a0516119556200020360003960008181610324015281816105120152818161065f0152818161085401528181610a3c01528181610b3f01528181610c6a01528181610cd801528181610eea0152610f930152600081816101b40152818161028601528181610473015281816105b9015281816107b3015281816109a201528181610aea01528181610c1701528181610c8b01528181610cb70152610e5001526119556000f3fe608060405234801561001057600080fd5b50600436106100935760003560e01c8063741bd2a511610066578063741bd2a5146101105780639c8f9f23146101405780639cd441da1461015c578063d004f0f714610178578063d21220a71461019457610093565b80630dfe16811461009857806318160ddd146100b6578063443cb4bc146100d45780635a76f25e146100f2575b600080fd5b6100a06101b2565b6040516100ad91906111a3565b60405180910390f35b6100be6101d6565b6040516100cb91906111d7565b60405180910390f35b6100dc6101dc565b6040516100e991906111d7565b60405180910390f35b6100fa6101e2565b60405161010791906111d7565b60405180910390f35b61012a60048036038101906101259190611235565b6101e8565b60405161013791906111d7565b60405180910390f35b61015a6004803603810190610155919061128e565b610200565b005b610176600480360381019061017191906112bb565b6105b6565b005b610192600480360381019061018d91906112fb565b610ae8565b005b61019c610f91565b6040516101a991906111a3565b60405180910390f35b7f000000000000000000000000000000000000000000000000000000000000000081565b60025481565b60005481565b60015481565b60036020528060005260406000206000915090505481565b80600360003373ffffffffffffffffffffffffffffffffffffffff1673ffffffffffffffffffffffffffffffffffffffff168152602001908152602001600020541015610282576040517f08c379a000000000000000000000000000000000000000000000000000000000815260040161027990611398565b60405180910390fd5b60007f000000000000000000000000000000000000000000000000000000000000000073ffffffffffffffffffffffffffffffffffffffff166370a08231306040518263ffffffff1660e01b81526004016102dd91906113c7565b602060405180830381865afa1580156102fa573d6000803e3d6000fd5b505050506040513d601f19601f8201168201806040525081019061031e91906113f7565b905060007f000000000000000000000000000000000000000000000000000000000000000073ffffffffffffffffffffffffffffffffffffffff166370a08231306040518263ffffffff1660e01b815260040161037b91906113c7565b602060405180830381865afa158015610398573d6000803e3d6000fd5b505050506040513d601f19601f820116820180604052508101906103bc91906113f7565b9050600060025483856103cf9190611453565b6103d991906114c4565b9050600060025483866103ec9190611453565b6103f691906114c4565b90506000821180156104085750600081115b610447576040517f08c379a000000000000000000000000000000000000000000000000000000000815260040161043e90611567565b60405180910390fd5b6104513386610fb5565b61047182856104609190611587565b828561046c9190611587565b611028565b7f000000000000000000000000000000000000000000000000000000000000000073ffffffffffffffffffffffffffffffffffffffff1663a9059cbb33846040518363ffffffff1660e01b81526004016104cc9291906115bb565b6020604051808303816000875af11580156104eb573d6000803e3d6000fd5b505050506040513d601f19601f8201168201806040525081019061050f919061161c565b507f000000000000000000000000000000000000000000000000000000000000000073ffffffffffffffffffffffffffffffffffffffff1663a9059cbb33836040518363ffffffff1660e01b815260040161056b9291906115bb565b6020604051808303816000875af115801561058a573d6000803e3d6000fd5b505050506040513d601f19601f820116820180604052508101906105ae919061161c565b505050505050565b817f000000000000000000000000000000000000000000000000000000000000000073ffffffffffffffffffffffffffffffffffffffff1663dd62ed3e33306040518363ffffffff1660e01b8152600401610612929190611649565b602060405180830381865afa15801561062f573d6000803e3d6000fd5b505050506040513d601f19601f8201168201806040525081019061065391906113f7565b101580156106fc5750807f000000000000000000000000000000000000000000000000000000000000000073ffffffffffffffffffffffffffffffffffffffff1663dd62ed3e33306040518363ffffffff1660e01b81526004016106b8929190611649565b602060405180830381865afa1580156106d5573d6000803e3d6000fd5b505050506040513d601f19601f820116820180604052508101906106f991906113f7565b10155b61073b576040517f08c379a0000000000000000000000000000000000000000000000000000000008152600401610732906116be565b60405180910390fd5b6000805414158061074f5750600060015414155b156107b157600054816107629190611453565b600154836107709190611453565b146107b0576040517f08c379a00000000000000000000000000000000000000000000000000000000081526004016107a790611750565b60405180910390fd5b5b7f000000000000000000000000000000000000000000000000000000000000000073ffffffffffffffffffffffffffffffffffffffff166323b872dd3330856040518463ffffffff1660e01b815260040161080e93929190611770565b6020604051808303816000875af115801561082d573d6000803e3d6000fd5b505050506040513d601f19601f82011682018060405250810190610851919061161c565b507f000000000000000000000000000000000000000000000000000000000000000073ffffffffffffffffffffffffffffffffffffffff166323b872dd3330846040518463ffffffff1660e01b81526004016108af93929190611770565b6020604051808303816000875af11580156108ce573d6000803e3d6000fd5b505050506040513d601f19601f820116820180604052508101906108f2919061161c565b506000806002540361091957610912828461090d9190611453565b61103a565b905061095a565b6109576000546002548561092d9190611453565b61093791906114c4565b600154600254856109489190611453565b61095291906114c4565b611097565b90505b6000811161099d576040517f08c379a0000000000000000000000000000000000000000000000000000000008152600401610994906117f3565b60405180910390fd5b610ad97f000000000000000000000000000000000000000000000000000000000000000073ffffffffffffffffffffffffffffffffffffffff166370a08231306040518263ffffffff1660e01b81526004016109f991906113c7565b602060405180830381865afa158015610a16573d6000803e3d6000fd5b505050506040513d601f19601f82011682018060405250810190610a3a91906113f7565b7f000000000000000000000000000000000000000000000000000000000000000073ffffffffffffffffffffffffffffffffffffffff166370a08231306040518263ffffffff1660e01b8152600401610a9391906113c7565b602060405180830381865afa158015610ab0573d6000803e3d6000fd5b505050506040513d601f19601f82011682018060405250810190610ad491906113f7565b611028565b610ae333826110b1565b505050565b7f000000000000000000000000000000000000000000000000000000000000000073ffffffffffffffffffffffffffffffffffffffff168273ffffffffffffffffffffffffffffffffffffffff161480610b8d57507f000000000000000000000000000000000000000000000000000000000000000073ffffffffffffffffffffffffffffffffffffffff168273ffffffffffffffffffffffffffffffffffffffff16145b610bcc576040517f08c379a0000000000000000000000000000000000000000000000000000000008152600401610bc39061185f565b60405180910390fd5b60008111610c0f576040517f08c379a0000000000000000000000000000000000000000000000000000000008152600401610c06906118cb565b60405180910390fd5b6000806000807f000000000000000000000000000000000000000000000000000000000000000073ffffffffffffffffffffffffffffffffffffffff168673ffffffffffffffffffffffffffffffffffffffff1614610cb5577f00000000000000000000000000000000000000000000000000000000000000007f0000000000000000000000000000000000000000000000000000000000000000600154600054610cfe565b7f00000000000000000000000000000000000000000000000000000000000000007f00000000000000000000000000000000000000000000000000000000000000006000546001545b93509350935093508373ffffffffffffffffffffffffffffffffffffffff166323b872dd3330886040518463ffffffff1660e01b8152600401610d4393929190611770565b6020604051808303816000875af1158015610d62573d6000803e3d6000fd5b505050506040513d601f19601f82011682018060405250810190610d86919061161c565b5060006103e86103e587610d9a9190611453565b610da491906114c4565b905060008184610db491906118eb565b8383610dc09190611453565b610dca91906114c4565b90508473ffffffffffffffffffffffffffffffffffffffff1663a9059cbb33836040518363ffffffff1660e01b8152600401610e079291906115bb565b6020604051808303816000875af1158015610e26573d6000803e3d6000fd5b505050506040513d601f19601f82011682018060405250810190610e4a919061161c565b50610f877f000000000000000000000000000000000000000000000000000000000000000073ffffffffffffffffffffffffffffffffffffffff166370a08231306040518263ffffffff1660e01b8152600401610ea791906113c7565b602060405180830381865afa158015610ec4573d6000803e3d6000fd5b505050506040513d601f19601f82011682018060405250810190610ee891906113f7565b7f000000000000000000000000000000000000000000000000000000000000000073ffffffffffffffffffffffffffffffffffffffff166370a08231306040518263ffffffff1660e01b8152600401610f4191906113c7565b602060405180830381865afa158015610f5e573d6000803e3d6000fd5b505050506040513d601f19601f82011682018060405250810190610f8291906113f7565b611028565b5050505050505050565b7f000000000000000000000000000000000000000000000000000000000000000081565b80600360008473ffffffffffffffffffffffffffffffffffffffff1673ffffffffffffffffffffffffffffffffffffffff16815260200190815260200160002060008282546110049190611587565b92505081905550806002600082825461101d9190611587565b925050819055505050565b81600081905550806001819055505050565b600080600260018461104c91906118eb565b61105691906114c4565b90508291505b8181101561109157809150600281828561107691906114c4565b61108091906118eb565b61108a91906114c4565b905061105c565b50919050565b6000818310156110a757826110a9565b815b905092915050565b80600360008473ffffffffffffffffffffffffffffffffffffffff1673ffffffffffffffffffffffffffffffffffffffff168152602001908152602001600020600082825461110091906118eb565b92505081905550806002600082825461111991906118eb565b925050819055505050565b600073ffffffffffffffffffffffffffffffffffffffff82169050919050565b6000819050919050565b600061116961116461115f84611124565b611144565b611124565b9050919050565b600061117b8261114e565b9050919050565b600061118d82611170565b9050919050565b61119d81611182565b82525050565b60006020820190506111b86000830184611194565b92915050565b6000819050919050565b6111d1816111be565b82525050565b60006020820190506111ec60008301846111c8565b92915050565b600080fd5b600061120282611124565b9050919050565b611212816111f7565b811461121d57600080fd5b50565b60008135905061122f81611209565b92915050565b60006020828403121561124b5761124a6111f2565b5b600061125984828501611220565b91505092915050565b61126b816111be565b811461127657600080fd5b50565b60008135905061128881611262565b92915050565b6000602082840312156112a4576112a36111f2565b5b60006112b284828501611279565b91505092915050565b600080604083850312156112d2576112d16111f2565b5b60006112e085828601611279565b92505060206112f185828601611279565b9150509250929050565b60008060408385031215611312576113116111f2565b5b600061132085828601611220565b925050602061133185828601611279565b9150509250929050565b600082825260208201905092915050565b7f4350414d4d3a20414444204c4951554944495459204649525354000000000000600082015250565b6000611382601a8361133b565b915061138d8261134c565b602082019050919050565b600060208201905081810360008301526113b181611375565b9050919050565b6113c1816111f7565b82525050565b60006020820190506113dc60008301846113b8565b92915050565b6000815190506113f181611262565b92915050565b60006020828403121561140d5761140c6111f2565b5b600061141b848285016113e2565b91505092915050565b7f4e487b7100000000000000000000000000000000000000000000000000000000600052601160045260246000fd5b600061145e826111be565b9150611469836111be565b9250828202611477816111be565b9150828204841483151761148e5761148d611424565b5b5092915050565b7f4e487b7100000000000000000000000000000000000000000000000000000000600052601260045260246000fd5b60006114cf826111be565b91506114da836111be565b9250826114ea576114e9611495565b5b828204905092915050565b7f4350414d4d3a204e4f204c495155494449545920415641494c41424c4520494e60008201527f2054484520504f4f4c0000000000000000000000000000000000000000000000602082015250565b600061155160298361133b565b915061155c826114f5565b604082019050919050565b6000602082019050818103600083015261158081611544565b9050919050565b6000611592826111be565b915061159d836111be565b92508282039050818111156115b5576115b4611424565b5b92915050565b60006040820190506115d060008301856113b8565b6115dd60208301846111c8565b9392505050565b60008115159050919050565b6115f9816115e4565b811461160457600080fd5b50565b600081519050611616816115f0565b92915050565b600060208284031215611632576116316111f2565b5b600061164084828501611607565b91505092915050565b600060408201905061165e60008301856113b8565b61166b60208301846113b8565b9392505050565b7f4350414d4d3a204e4f5420415050524f56454400000000000000000000000000600082015250565b60006116a860138361133b565b91506116b382611672565b602082019050919050565b600060208201905081810360008301526116d78161169b565b9050919050565b7f4350414d4d3a20535550504c494544204c495155494449545920495320494e5660008201527f414c494400000000000000000000000000000000000000000000000000000000602082015250565b600061173a60248361133b565b9150611745826116de565b604082019050919050565b600060208201905081810360008301526117698161172d565b9050919050565b600060608201905061178560008301866113b8565b61179260208301856113b8565b61179f60408301846111c8565b949350505050565b7f736861726573203d203000000000000000000000000000000000000000000000600082015250565b60006117dd600a8361133b565b91506117e8826117a7565b602082019050919050565b6000602082019050818103600083015261180c816117d0565b9050919050565b7f4350414d4d3a20494e56414c494420544f4b454e000000000000000000000000600082015250565b600061184960148361133b565b915061185482611813565b602082019050919050565b600060208201905081810360008301526118788161183c565b9050919050565b7f4350414d4d3a20414d4f554e542048415320544f204245203e20300000000000600082015250565b60006118b5601b8361133b565b91506118c08261187f565b602082019050919050565b600060208201905081810360008301526118e4816118a8565b9050919050565b60006118f6826111be565b9150611901836111be565b925082820190508082111561191957611918611424565b5b9291505056fea2646970667358221220f9623a804e6800dc499a6a7af0d245c398b190173612488741f550b52ce5e7f164736f6c63430008110033",
  "immutableReferences": {
    "717": [
      {
        "length": 32,
        "start": 436
      },
      {
        "length": 32,
        "start": 646
      },
      {
        "length": 32,
        "start": 1139
      },
      {
        "length": 32,
        "start": 1465
      },
      {
        "length": 32,
        "start": 1971
      },
      {
        "length": 32,
        "start": 2466
      },
      {
        "length": 32,
        "start": 2794
      },
      {
        "length": 32,
        "start": 3095
      },
      {
        "length": 32,
        "start": 3211
      },
      {
        "length": 32,
        "start": 3255
      },
      {
        "length": 32,
        "start": 3664
      }
    ],
    "720": [
      {
        "length": 32,
        "start": 804
      },
      {
        "length": 32,
        "start": 1298
      },
      {
        "length": 32,
        "start": 1631
      },
      {
        "length": 32,
        "start": 2132
      },
      {
        "length": 32,
        "start": 2620
      },
      {
        "length": 32,
        "start": 2879
      },
      {
        "length": 32,
        "start": 3178
      },
      {
        "length": 32,
        "start": 3288
      },
      {
        "length": 32,
        "start": 3818
      },
      {
        "length": 32,
        "start": 3987
      }
    ]
  },
  "source": "// SPDX-License-Identifier: MIT\r\n\r\npragma solidity ^0.8.17;\r\n\r\nimport \"@openzeppelin/contracts/token/ERC20/IERC20.sol\";\r\n\r\ncontract CPAMM {\r\n    IERC20 public immutable token0;\r\n    IERC20 public immutable token1;\r\n\r\n    uint256 public reserve0;\r\n    uint256 public reserve1;\r\n\r\n    uint256 public totalSupply;\r\n\r\n    mapping(address => uint256) public sharesHeld;\r\n\r\n    constructor(address _token0, address _token1) {\r\n        token0 = IERC20(_token0);\r\n        token1 = IERC20(_token1);\r\n    }\r\n\r\n    function mint(address _to, uint256 _amount) private {\r\n        sharesHeld[_to] += _amount;\r\n        totalSupply += _amount;\r\n    }\r\n\r\n    function burn(address _from, uint256 _amount) private {\r\n        sharesHeld[_from] -= _amount;\r\n        totalSupply -= _amount;\r\n    }\r\n\r\n    function updateReserves(uint256 _reserve0, uint256 _reserve1) private {\r\n        reserve0 = _reserve0;\r\n        reserve1 = _reserve1;\r\n    }\r\n\r\n    function addLiquidity(uint256 _amount0, uint256 _amount1) external {\r\n        require(\r\n            token0.allowance(msg.sender, address(this)) >= _amount0\r\n                && token1.allowance(msg.sender, address(this)) >= _amount1,\r\n            \"CPAMM: NOT APPROVED\"\r\n        );\r\n        // CHECK dy/dx = y/x\r\n        if (reserve0 != 0 || reserve1 != 0) {\r\n            require(_amount0 * reserve1 == _amount1 * reserve0, \"CPAMM: SUPPLIED LIQUIDITY IS INVALID\");\r\n        }\r\n\r\n        token0.transferFrom(msg.sender, address(this), _amount0);\r\n        token1.transferFrom(msg.sender, address(this), _amount1);\r\n\r\n        // CALCULATE SHARES\r\n        uint256 shares;\r\n        if (totalSupply == 0) {\r\n            shares = sqrt(_amount0 * _amount1);\r\n        } else {\r\n            shares = min((_amount0 * totalSupply) / reserve0, (_amount1 * totalSupply) / reserve1);\r\n        }\r\n        require(shares > 0, \"shares = 0\");\r\n\r\n        updateReserves(token0.balanceOf(address(this)), token1.balanceOf(address(this)));\r\n        \r\n        mint(msg.sender, shares);\r\n    }\r\n\r\n    function removeLiquidity(uint256 shares) external {\r\n        // CHECK VALID STATES\r\n        require(sharesHeld[msg.sender] >= shares, \"CPAMM: ADD LIQUIDITY FIRST\");\r\n\r\n        uint256 bal0 = token0.balanceOf(address(this));\r\n        uint256 bal1 = token1.balanceOf(address(this));\r\n\r\n        // CALCULATE OUT AMOUNT\r\n        uint256 amount0 = (shares * bal0) / totalSupply;\r\n        uint256 amount1 = (shares * bal1) / totalSupply;\r\n\r\n        require(amount0 > 0 && amount1 > 0, \"CPAMM: NO LIQUIDITY AVAILABLE IN THE POOL\");\r\n\r\n        burn(msg.sender, shares);\r\n        updateReserves(bal0 - amount0, bal1 - amount1);\r\n\r\n        // TRANSFER AND UPDATE STATES\r\n        token0.transfer(msg.sender, amount0);\r\n        token1.transfer(msg.sender, amount1);\r\n    }\r\n\r\n    function swap(address _token, uint256 _amount) external {\r\n        require(_token == address(token0) || _token == address(token1), \"CPAMM: INVALID TOKEN\");\r\n        require(_amount > 0, \"CPAMM: AMOUNT HAS TO BE > 0\");\r\n\r\n        (IERC20 tokenIn, IERC20 tokenOut, uint256 reserveIn, uint256 reserveOut) =\r\n            _token == address(token0) ? (token0, token1, reserve0, reserve1) : (token1, token0, reserve1, reserve0);\r\n\r\n        tokenIn.transferFrom(msg.sender, address(this), _amount);\r\n\r\n        // FEE IS 0.3\r\n        uint256 amountWithoutFees = (_amount * 997) / 1000;\r\n\r\n        // CALC dy = (y * dx) / (x + dx)\r\n        uint256 amountOut = (amountWithoutFees * reserveOut) / (reserveIn + amountWithoutFees);\r\n        tokenOut.transfer(msg.sender, amountOut);\r\n\r\n        updateReserves(token0.balanceOf(address(this)), token1.balanceOf(address(this)));\r\n    }\r\n\r\n    // UTILITY FUNCTIONS\r\n    function sqrt(uint256 x) private pure returns (uint256 y) {\r\n        uint256 z = (x + 1) / 2;\r\n        y = x;\r\n        while (z < y) {\r\n            y = z;\r\n            z = (x / z + z) / 2;\r\n        }\r\n    }\r\n\r\n    function min(uint256 x, uint256 y) private pure returns (uint256) {\r\n        return x >= y ? y : x;\r\n    }\r\n}\r\n",
  "sourcePath": "D:\\Projects\\DevHouse\\dex-contracts\\contracts\\CPAMM.sol",
  "compiler": {
    "name": "solc",
    "version": "0.8.17+commit.8df45f5f.Emscripten.clang"
  },
  "schemaVersion": "3.4.11",
  "updatedAt": "2023-01-25T02:52:30.004Z",
  "networkType": "ethereum",
  "devdoc": {
    "kind": "dev",
    "methods": {},
    "version": 1
  },
  "userdoc": {
    "kind": "user",
    "methods": {},
    "version": 1
  }
}